:02000000DF28F7
:100006000030831203132706031D0B280030260633
:10001600031D0F284030870000302706031D1528D2
:1000260001302606031D1A28793087007028003013
:100036002706031D202802302606031D2528243006
:100046008700702800302706031D2B28033026065C
:10005600031D302830308700702800302706031D26
:10006600362804302606031D3B28193087007028E1
:1000760000302706031D412805302606031D4628A5
:1000860012308700702800302706031D4C280630E2
:100096002606031D512802308700702800302706E7
:1000A600031D572807302606031D5C287830870075
:1000B600702800302706031D622808302606031D17
:1000C60066288701702800302706031D6C28093032
:0C00D6002606031D70281030870008006B
:1000E2000030831203132706031D792800302606E9
:1000F200031D7D284030880000302706031D832819
:1001020001302606031D882879308800DE28003059
:100112002706031D8E2802302606031D932824304D
:100122008800DE2800302706031D992803302606A2
:10013200031D9E2830308800DE2800302706031D6C
:10014200A42804302606031DA92819308800DE28B9
:1001520000302706031DAF2805302606031DB428EC
:1001620012308800DE2800302706031DBA28063028
:100172002606031DBF2802308800DE28003027062D
:10018200031DC52807302606031DCA2878308800BB
:10019200DE2800302706031DD02808302606031D5E
:1001A200D4288801DE2800302706031DDA2809300A
:0C01B2002606031DDE281030880008001F
:1001BE008316031386018701880183128601870146
:1001CE0088010330A2000030A30080302306F00027
:1001DE0080307002031DF52800302202031C2629F0
:1001EE002208A6002308A70003200130860009304C
:1001FE00A4000030A50080302506F000803070028B
:10020E00031D0B2900302402031C21292408A600FB
:10021E002508A70071208230FC00DD30FD00FD0BAB
:10022E001629FC0B1629000000000130A402031C45
:10023E00A50302290130A202031CA303EC28A2018C
:10024E00A30180302306F00080307002031D312997
:10025E0000302202031C62292208A6002308A700F0
:10026E000320023086000530A4000030A500803047
:10027E002506F00080307002031D4729003024024D
:10028E00031C5D292408A6002508A70071208230D2
:10029E00FC00DD30FD00FD0B5229FC0B5229000045
:1002AE0000000130A402031CA5033E290130A20266
:1002BE00031CA30328290130A2000030A3008030C4
:1002CE002306F00080307002031D6F2900302202D9
:1002DE00031CA0292208A6002308A700032004302F
:1002EE0086000930A4000030A50080302506F000FD
:1002FE0080307002031D852900302402031C9B29C7
:10030E002408A6002508A70071208230FC00DD30ED
:10031E00FD00FD0B9029FC0B902900000000013020
:10032E00A402031CA5037C290130A202031CA30313
:06033E006629E828A12950
:02400E004A2F37
:00000001FF
